:030000000208995A
:0C089900787FE4F6D8FD7581190208E0B4
:100A7100436F727265637400496E636F727265636E
:020A81007400FF
:080A9100060D3130303338004E
:0F0995007F0F120A637F38120A637F01120A6311
:1009A400E4F513F5147F80120A63120A38740D25D6
:1009B40014F8E6601712080074082514F8A6071244
:0F09C4000A380514E51470E5051380E1120925C2
:0209D30080CFD3
:090A33007F2A120A837FE87E038A
:100A3C00E4FDFCC3ED9FEC9E5015E4FBFA0BBB00F0
:0F0A4C00010AEB640A4A70F50DBD00010C80E44D
:010A5B002278
:070A5C007F01120A637FC154
:0E0A63008F90C2B5C2B6D2B7120A38C2B722FF
:0E0A83008F90D2B5C2B6D2B7120A38C2B722CF
:0609D5008B158A1689173C
:1009DB00E4F518F519AB15AA16A917851982851810
:1009EB0083120A06FF600D120A830519E51970E5DB
:0B09FB00051880E17F107E27020A3CF7
:10080000E4FFFEEF4E6003020898C2A0D2A1D2A27C
:10081000D2A320B006120A337F312220B106120A79
:10082000337F322220B206120A337F3322D2A0C293
:10083000A1D2A2D2A320B006120A337F342220B163
:1008400006120A337F352220B206120A337F36227F
:10085000D2A0D2A1C2A2D2A320B006120A337F37FF
:100860002220B106120A337F382220B206120A3340
:100870007F3922D2A0D2A1D2A2C2A320B006120AEE
:10088000337F2A2220B106120A337F302230B2038E
:08089000020803120A337F2362
:01089800223D
:10092500E50D65087042E50E6509703CE50F650A41
:100935007036E510650B7030E511650C702A120AEA
:1009450038120A5C7BFF7A0A79711209D57FA07E7D
:1009550086120A3CD2B3C2B47F107E27120A3CD25B
:10096500B3C2B47F01020A63120A5C7BFF7A0A797B
:10097500791209D57FC0120A63120A387F01120A5B
:1009850063C2807FA07E86120A3CD280120A38227A
:1008A500020995E493A3F8E493A34003F68001F2CB
:1008B50008DFF48029E493A3F85407240CC8C33354
:1008C500C4540F4420C8834004F456800146F6DF23
:1008D500E4800B0102040810204080900A91E47E18
:1008E500019360BCA3FF543F30E509541FFEE49318
:1008F500A360010ECF54C025E060A840B8E493A3DF
:10090500FAE493A3F8E493A3C8C582C8CAC583CA09
:10091500F0A3C8C582C8CAC583CADFE9DEE780BEC1
:010A9900005C
:100A0600BB010CE58229F582E5833AF583E02250A5
:100A160006E92582F8E622BBFE06E92582F8E222EF
:0D0A2600E58229F582E5833AF583E4932209
:00000001FF
